{
  "_format": "hh-sol-artifact-1",
  "contractName": "TaedalNFT",
  "sourceName": "contracts/TaedalNFT.sol",
  "abi": [
    {
      "inputs": [
        {
          "internalType": "address",
          "name": "royaltyReceiver",
          "type": "address"
        },
        {
          "internalType": "uint96",
          "name": "feeNumeratorBps",
          "type": "uint96"
        }
      ],
      "stateMutability": "nonpayable",
      "type": "constructor"
    },
    {
      "inputs": [
        {
          "internalType": "uint256",
          "name": "numerator",
          "type": "uint256"
        },
        {
          "internalType": "uint256",
          "name": "denominator",
          "type": "uint256"
        }
      ],
      "name": "ERC2981InvalidDefaultRoyalty",
      "type": "error"
    },
    {
      "inputs": [
        {
          "internalType": "address",
          "name": "receiver",
          "type": "address"
        }
      ],
      "name": "ERC2981InvalidDefaultRoyaltyReceiver",
      "type": "error"
    },
    {
      "inputs": [
        {
          "internalType": "uint256",
          "name": "tokenId",
          "type": "uint256"
        },
        {
          "internalType": "uint256",
          "name": "numerator",
          "type": "uint256"
        },
        {
          "internalType": "uint256",
          "name": "denominator",
          "type": "uint256"
        }
      ],
      "name": "ERC2981InvalidTokenRoyalty",
      "type": "error"
    },
    {
      "inputs": [
        {
          "internalType": "uint256",
          "name": "tokenId",
          "type": "uint256"
        },
        {
          "internalType": "address",
          "name": "receiver",
          "type": "address"
        }
      ],
      "name": "ERC2981InvalidTokenRoyaltyReceiver",
      "type": "error"
    },
    {
      "inputs": [
        {
          "internalType": "address",
          "name": "sender",
          "type": "address"
        },
        {
          "internalType": "uint256",
          "name": "tokenId",
          "type": "uint256"
        },
        {
          "internalType": "address",
          "name": "owner",
          "type": "address"
        }
      ],
      "name": "ERC721IncorrectOwner",
      "type": "error"
    },
    {
      "inputs": [
        {
          "internalType": "address",
          "name": "operator",
          "type": "address"
        },
        {
          "internalType": "uint256",
          "name": "tokenId",
          "type": "uint256"
        }
      ],
      "name": "ERC721InsufficientApproval",
      "type": "error"
    },
    {
      "inputs": [
        {
          "internalType": "address",
          "name": "approver",
          "type": "address"
        }
      ],
      "name": "ERC721InvalidApprover",
      "type": "error"
    },
    {
      "inputs": [
        {
          "internalType": "address",
          "name": "operator",
          "type": "address"
        }
      ],
      "name": "ERC721InvalidOperator",
      "type": "error"
    },
    {
      "inputs": [
        {
          "internalType": "address",
          "name": "owner",
          "type": "address"
        }
      ],
      "name": "ERC721InvalidOwner",
      "type": "error"
    },
    {
      "inputs": [
        {
          "internalType": "address",
          "name": "receiver",
          "type": "address"
        }
      ],
      "name": "ERC721InvalidReceiver",
      "type": "error"
    },
    {
      "inputs": [
        {
          "internalType": "address",
          "name": "sender",
          "type": "address"
        }
      ],
      "name": "ERC721InvalidSender",
      "type": "error"
    },
    {
      "inputs": [
        {
          "internalType": "uint256",
          "name": "tokenId",
          "type": "uint256"
        }
      ],
      "name": "ERC721NonexistentToken",
      "type": "error"
    },
    {
      "inputs": [
        {
          "internalType": "address",
          "name": "owner",
          "type": "address"
        }
      ],
      "name": "OwnableInvalidOwner",
      "type": "error"
    },
    {
      "inputs": [
        {
          "internalType": "address",
          "name": "account",
          "type": "address"
        }
      ],
      "name": "OwnableUnauthorizedAccount",
      "type": "error"
    },
    {
      "anonymous": false,
      "inputs": [
        {
          "indexed": true,
          "internalType": "address",
          "name": "owner",
          "type": "address"
        },
        {
          "indexed": true,
          "internalType": "address",
          "name": "approved",
          "type": "address"
        },
        {
          "indexed": true,
          "internalType": "uint256",
          "name": "tokenId",
          "type": "uint256"
        }
      ],
      "name": "Approval",
      "type": "event"
    },
    {
      "anonymous": false,
      "inputs": [
        {
          "indexed": true,
          "internalType": "address",
          "name": "owner",
          "type": "address"
        },
        {
          "indexed": true,
          "internalType": "address",
          "name": "operator",
          "type": "address"
        },
        {
          "indexed": false,
          "internalType": "bool",
          "name": "approved",
          "type": "bool"
        }
      ],
      "name": "ApprovalForAll",
      "type": "event"
    },
    {
      "anonymous": false,
      "inputs": [
        {
          "indexed": true,
          "internalType": "address",
          "name": "minter",
          "type": "address"
        },
        {
          "indexed": true,
          "internalType": "uint256",
          "name": "artworkId",
          "type": "uint256"
        },
        {
          "indexed": true,
          "internalType": "uint256",
          "name": "tokenId",
          "type": "uint256"
        },
        {
          "indexed": false,
          "internalType": "string",
          "name": "tokenURI",
          "type": "string"
        }
      ],
      "name": "ArtworkLinked",
      "type": "event"
    },
    {
      "anonymous": false,
      "inputs": [
        {
          "indexed": false,
          "internalType": "uint256",
          "name": "_fromTokenId",
          "type": "uint256"
        },
        {
          "indexed": false,
          "internalType": "uint256",
          "name": "_toTokenId",
          "type": "uint256"
        }
      ],
      "name": "BatchMetadataUpdate",
      "type": "event"
    },
    {
      "anonymous": false,
      "inputs": [
        {
          "indexed": false,
          "internalType": "uint256",
          "name": "_tokenId",
          "type": "uint256"
        }
      ],
      "name": "MetadataUpdate",
      "type": "event"
    },
    {
      "anonymous": false,
      "inputs": [
        {
          "indexed": true,
          "internalType": "address",
          "name": "previousOwner",
          "type": "address"
        },
        {
          "indexed": true,
          "internalType": "address",
          "name": "newOwner",
          "type": "address"
        }
      ],
      "name": "OwnershipTransferred",
      "type": "event"
    },
    {
      "anonymous": false,
      "inputs": [
        {
          "indexed": true,
          "internalType": "address",
          "name": "from",
          "type": "address"
        },
        {
          "indexed": true,
          "internalType": "address",
          "name": "to",
          "type": "address"
        },
        {
          "indexed": true,
          "internalType": "uint256",
          "name": "tokenId",
          "type": "uint256"
        }
      ],
      "name": "Transfer",
      "type": "event"
    },
    {
      "inputs": [
        {
          "internalType": "address",
          "name": "to",
          "type": "address"
        },
        {
          "internalType": "uint256",
          "name": "tokenId",
          "type": "uint256"
        }
      ],
      "name": "approve",
      "outputs": [],
      "stateMutability": "nonpayable",
      "type": "function"
    },
    {
      "inputs": [
        {
          "internalType": "address",
          "name": "owner",
          "type": "address"
        }
      ],
      "name": "balanceOf",
      "outputs": [
        {
          "internalType": "uint256",
          "name": "",
          "type": "uint256"
        }
      ],
      "stateMutability": "view",
      "type": "function"
    },
    {
      "inputs": [],
      "name": "deleteDefaultRoyalty",
      "outputs": [],
      "stateMutability": "nonpayable",
      "type": "function"
    },
    {
      "inputs": [
        {
          "internalType": "uint256",
          "name": "tokenId",
          "type": "uint256"
        }
      ],
      "name": "getApproved",
      "outputs": [
        {
          "internalType": "address",
          "name": "",
          "type": "address"
        }
      ],
      "stateMutability": "view",
      "type": "function"
    },
    {
      "inputs": [
        {
          "internalType": "address",
          "name": "owner",
          "type": "address"
        },
        {
          "internalType": "address",
          "name": "operator",
          "type": "address"
        }
      ],
      "name": "isApprovedForAll",
      "outputs": [
        {
          "internalType": "bool",
          "name": "",
          "type": "bool"
        }
      ],
      "stateMutability": "view",
      "type": "function"
    },
    {
      "inputs": [
        {
          "internalType": "address",
          "name": "to",
          "type": "address"
        },
        {
          "internalType": "string",
          "name": "uri",
          "type": "string"
        },
        {
          "internalType": "uint256",
          "name": "artworkId",
          "type": "uint256"
        }
      ],
      "name": "mintToWithURI",
      "outputs": [
        {
          "internalType": "uint256",
          "name": "tokenId",
          "type": "uint256"
        }
      ],
      "stateMutability": "nonpayable",
      "type": "function"
    },
    {
      "inputs": [
        {
          "internalType": "string",
          "name": "uri",
          "type": "string"
        },
        {
          "internalType": "uint256",
          "name": "artworkId",
          "type": "uint256"
        }
      ],
      "name": "mintWithURI",
      "outputs": [
        {
          "internalType": "uint256",
          "name": "tokenId",
          "type": "uint256"
        }
      ],
      "stateMutability": "nonpayable",
      "type": "function"
    },
    {
      "inputs": [],
      "name": "name",
      "outputs": [
        {
          "internalType": "string",
          "name": "",
          "type": "string"
        }
      ],
      "stateMutability": "view",
      "type": "function"
    },
    {
      "inputs": [],
      "name": "nextId",
      "outputs": [
        {
          "internalType": "uint256",
          "name": "",
          "type": "uint256"
        }
      ],
      "stateMutability": "view",
      "type": "function"
    },
    {
      "inputs": [],
      "name": "owner",
      "outputs": [
        {
          "internalType": "address",
          "name": "",
          "type": "address"
        }
      ],
      "stateMutability": "view",
      "type": "function"
    },
    {
      "inputs": [
        {
          "internalType": "uint256",
          "name": "tokenId",
          "type": "uint256"
        }
      ],
      "name": "ownerOf",
      "outputs": [
        {
          "internalType": "address",
          "name": "",
          "type": "address"
        }
      ],
      "stateMutability": "view",
      "type": "function"
    },
    {
      "inputs": [],
      "name": "renounceOwnership",
      "outputs": [],
      "stateMutability": "nonpayable",
      "type": "function"
    },
    {
      "inputs": [
        {
          "internalType": "uint256",
          "name": "tokenId",
          "type": "uint256"
        },
        {
          "internalType": "uint256",
          "name": "salePrice",
          "type": "uint256"
        }
      ],
      "name": "royaltyInfo",
      "outputs": [
        {
          "internalType": "address",
          "name": "receiver",
          "type": "address"
        },
        {
          "internalType": "uint256",
          "name": "amount",
          "type": "uint256"
        }
      ],
      "stateMutability": "view",
      "type": "function"
    },
    {
      "inputs": [
        {
          "internalType": "address",
          "name": "from",
          "type": "address"
        },
        {
          "internalType": "address",
          "name": "to",
          "type": "address"
        },
        {
          "internalType": "uint256",
          "name": "tokenId",
          "type": "uint256"
        }
      ],
      "name": "safeTransferFrom",
      "outputs": [],
      "stateMutability": "nonpayable",
      "type": "function"
    },
    {
      "inputs": [
        {
          "internalType": "address",
          "name": "from",
          "type": "address"
        },
        {
          "internalType": "address",
          "name": "to",
          "type": "address"
        },
        {
          "internalType": "uint256",
          "name": "tokenId",
          "type": "uint256"
        },
        {
          "internalType": "bytes",
          "name": "data",
          "type": "bytes"
        }
      ],
      "name": "safeTransferFrom",
      "outputs": [],
      "stateMutability": "nonpayable",
      "type": "function"
    },
    {
      "inputs": [
        {
          "internalType": "address",
          "name": "operator",
          "type": "address"
        },
        {
          "internalType": "bool",
          "name": "approved",
          "type": "bool"
        }
      ],
      "name": "setApprovalForAll",
      "outputs": [],
      "stateMutability": "nonpayable",
      "type": "function"
    },
    {
      "inputs": [
        {
          "internalType": "address",
          "name": "receiver",
          "type": "address"
        },
        {
          "internalType": "uint96",
          "name": "feeNumeratorBps",
          "type": "uint96"
        }
      ],
      "name": "setDefaultRoyalty",
      "outputs": [],
      "stateMutability": "nonpayable",
      "type": "function"
    },
    {
      "inputs": [
        {
          "internalType": "bytes4",
          "name": "interfaceId",
          "type": "bytes4"
        }
      ],
      "name": "supportsInterface",
      "outputs": [
        {
          "internalType": "bool",
          "name": "",
          "type": "bool"
        }
      ],
      "stateMutability": "view",
      "type": "function"
    },
    {
      "inputs": [],
      "name": "symbol",
      "outputs": [
        {
          "internalType": "string",
          "name": "",
          "type": "string"
        }
      ],
      "stateMutability": "view",
      "type": "function"
    },
    {
      "inputs": [
        {
          "internalType": "uint256",
          "name": "tokenId",
          "type": "uint256"
        }
      ],
      "name": "tokenURI",
      "outputs": [
        {
          "internalType": "string",
          "name": "",
          "type": "string"
        }
      ],
      "stateMutability": "view",
      "type": "function"
    },
    {
      "inputs": [
        {
          "internalType": "address",
          "name": "from",
          "type": "address"
        },
        {
          "internalType": "address",
          "name": "to",
          "type": "address"
        },
        {
          "internalType": "uint256",
          "name": "tokenId",
          "type": "uint256"
        }
      ],
      "name": "transferFrom",
      "outputs": [],
      "stateMutability": "nonpayable",
      "type": "function"
    },
    {
      "inputs": [
        {
          "internalType": "address",
          "name": "newOwner",
          "type": "address"
        }
      ],
      "name": "transferOwnership",
      "outputs": [],
      "stateMutability": "nonpayable",
      "type": "function"
    }
  ],
  "bytecode": "0x60806040526001600a553480156200001657600080fd5b506040516200370e3803806200370e83398181016040528101906200003c9190620004a3565b336040518060400160405280600681526020017f54616564616c00000000000000000000000000000000000000000000000000008152506040518060400160405280600681526020017f54414544414c00000000000000000000000000000000000000000000000000008152508160009081620000ba919062000764565b508060019081620000cc919062000764565b505050600073ffffffffffffffffffffffffffffffffffffffff168173ffffffffffffffffffffffffffffffffffffffff1603620001445760006040517f1e4fbdf70000000000000000000000000000000000000000000000000000000081526004016200013b91906200085c565b60405180910390fd5b62000155816200017060201b60201c565b506200016882826200023660201b60201c565b5050620008f0565b6000600960009054906101000a900473ffffffffffffffffffffffffffffffffffffffff16905081600960006101000a81548173ffffffffffffffffffffffffffffffffffffffff021916908373ffffffffffffffffffffffffffffffffffffffff1602179055508173ffffffffffffffffffffffffffffffffffffffff168173ffffffffffffffffffffffffffffffffffffffff167f8be0079c531659141344cd1fd0a4f28419497f9722a3daafe3b4186f6b6457e060405160405180910390a35050565b600062000248620003e660201b60201c565b6bffffffffffffffffffffffff16905080826bffffffffffffffffffffffff161115620002b05781816040517f6f483d09000000000000000000000000000000000000000000000000000000008152600401620002a7929190620008c3565b60405180910390fd5b600073ffffffffffffffffffffffffffffffffffffffff168373ffffffffffffffffffffffffffffffffffffffff1603620003255760006040517fb6d9900a0000000000000000000000000000000000000000000000000000000081526004016200031c91906200085c565b60405180910390fd5b60405180604001604052808473ffffffffffffffffffffffffffffffffffffffff168152602001836bffffffffffffffffffffffff16815250600760008201518160000160006101000a81548173ffffffffffffffffffffffffffffffffffffffff021916908373ffffffffffffffffffffffffffffffffffffffff16021790555060208201518160000160146101000a8154816bffffffffffffffffffffffff02191690836bffffffffffffffffffffffff160217905550905050505050565b6000612710905090565b600080fd5b600073ffffffffffffffffffffffffffffffffffffffff82169050919050565b60006200042282620003f5565b9050919050565b620004348162000415565b81146200044057600080fd5b50565b600081519050620004548162000429565b92915050565b60006bffffffffffffffffffffffff82169050919050565b6200047d816200045a565b81146200048957600080fd5b50565b6000815190506200049d8162000472565b92915050565b60008060408385031215620004bd57620004bc620003f0565b5b6000620004cd8582860162000443565b9250506020620004e0858286016200048c565b9150509250929050565b600081519050919050565b7f4e487b7100000000000000000000000000000000000000000000000000000000600052604160045260246000fd5b7f4e487b7100000000000000000000000000000000000000000000000000000000600052602260045260246000fd5b600060028204905060018216806200056c57607f821691505b60208210810362000582576200058162000524565b5b50919050565b60008190508160005260206000209050919050565b60006020601f8301049050919050565b600082821b905092915050565b600060088302620005ec7fffffffffffffffffffffffffffffffffffffffffffffffffffffffffffffffff82620005ad565b620005f88683620005ad565b95508019841693508086168417925050509392505050565b6000819050919050565b6000819050919050565b6000620006456200063f620006398462000610565b6200061a565b62000610565b9050919050565b6000819050919050565b620006618362000624565b6200067962000670826200064c565b848454620005ba565b825550505050565b600090565b6200069062000681565b6200069d81848462000656565b505050565b5b81811015620006c557620006b960008262000686565b600181019050620006a3565b5050565b601f8211156200071457620006de8162000588565b620006e9846200059d565b81016020851015620006f9578190505b6200071162000708856200059d565b830182620006a2565b50505b505050565b600082821c905092915050565b6000620007396000198460080262000719565b1980831691505092915050565b600062000754838362000726565b9150826002028217905092915050565b6200076f82620004ea565b67ffffffffffffffff8111156200078b576200078a620004f5565b5b62000797825462000553565b620007a4828285620006c9565b600060209050601f831160018114620007dc5760008415620007c7578287015190505b620007d3858262000746565b86555062000843565b601f198416620007ec8662000588565b60005b828110156200081657848901518255600182019150602085019450602081019050620007ef565b8683101562000836578489015162000832601f89168262000726565b8355505b6001600288020188555050505b505050505050565b620008568162000415565b82525050565b60006020820190506200087360008301846200084b565b92915050565b60006200089a620008946200088e846200045a565b6200061a565b62000610565b9050919050565b620008ac8162000879565b82525050565b620008bd8162000610565b82525050565b6000604082019050620008da6000830185620008a1565b620008e96020830184620008b2565b9392505050565b612e0e80620009006000396000f3fe608060405234801561001057600080fd5b50600436106101425760003560e01c806370a08231116100b8578063aa1b103f1161007c578063aa1b103f14610376578063b88d4fde14610380578063c87b56dd1461039c578063da7caf6f146103cc578063e985e9c5146103fc578063f2fde38b1461042c57610142565b806370a08231146102e4578063715018a6146103145780638da5cb5b1461031e57806395d89b411461033c578063a22cb4651461035a57610142565b806323b872dd1161010a57806323b872dd146101fd5780632a55205a1461021957806342842e0e1461024a578063526da8f51461026657806361b8ce8c146102965780636352211e146102b457610142565b806301ffc9a71461014757806304634d8d1461017757806306fdde0314610193578063081812fc146101b1578063095ea7b3146101e1575b600080fd5b610161600480360381019061015c9190612066565b610448565b60405161016e91906120ae565b60405180910390f35b610191600480360381019061018c919061216b565b61045a565b005b61019b610470565b6040516101a8919061223b565b60405180910390f35b6101cb60048036038101906101c69190612293565b610502565b6040516101d891906122cf565b60405180910390f35b6101fb60048036038101906101f691906122ea565b61051e565b005b6102176004803603810190610212919061232a565b610534565b005b610233600480360381019061022e919061237d565b610636565b6040516102419291906123cc565b60405180910390f35b610264600480360381019061025f919061232a565b610766565b005b610280600480360381019061027b919061252a565b610786565b60405161028d9190612586565b60405180910390f35b61029e61080b565b6040516102ab9190612586565b60405180910390f35b6102ce60048036038101906102c99190612293565b610811565b6040516102db91906122cf565b60405180910390f35b6102fe60048036038101906102f991906125a1565b610823565b60405161030b9190612586565b60405180910390f35b61031c6108dd565b005b6103266108f1565b60405161033391906122cf565b60405180910390f35b61034461091b565b604051610351919061223b565b60405180910390f35b610374600480360381019061036f91906125fa565b6109ad565b005b61037e6109c3565b005b61039a600480360381019061039591906126db565b6109d5565b005b6103b660048036038101906103b19190612293565b6109fa565b6040516103c3919061223b565b60405180910390f35b6103e660048036038101906103e1919061275e565b610b0d565b6040516103f39190612586565b60405180910390f35b610416600480360381019061041191906127cd565b610b9b565b60405161042391906120ae565b60405180910390f35b610446600480360381019061044191906125a1565b610c2f565b005b600061045382610cb5565b9050919050565b610462610d2f565b61046c8282610db6565b5050565b60606000805461047f9061283c565b80601f01602080910402602001604051908101604052809291908181526020018280546104ab9061283c565b80156104f85780601f106104cd576101008083540402835291602001916104f8565b820191906000526020600020905b8154815290600101906020018083116104db57829003601f168201915b5050505050905090565b600061050d82610f58565b5061051782610fe0565b9050919050565b610530828261052b61101d565b611025565b5050565b600073ffffffffffffffffffffffffffffffffffffffff168273ffffffffffffffffffffffffffffffffffffffff16036105a65760006040517f64a0ae9200000000000000000000000000000000000000000000000000000000815260040161059d91906122cf565b60405180910390fd5b60006105ba83836105b561101d565b611037565b90508373ffffffffffffffffffffffffffffffffffffffff168173ffffffffffffffffffffffffffffffffffffffff1614610630578382826040517f64283d7b0000000000000000000000000000000000000000000000000000000081526004016106279392919061286d565b60405180910390fd5b50505050565b600080600060086000868152602001908152602001600020905060008160000160009054906101000a900473ffffffffffffffffffffffffffffffffffffffff16905060008260000160149054906101000a90046bffffffffffffffffffffffff169050600073ffffffffffffffffffffffffffffffffffffffff168273ffffffffffffffffffffffffffffffffffffffff160361071757600760000160009054906101000a900473ffffffffffffffffffffffffffffffffffffffff169150600760000160149054906101000a90046bffffffffffffffffffffffff1690505b6000610721611251565b6bffffffffffffffffffffffff16826bffffffffffffffffffffffff168861074991906128d3565b6107539190612944565b9050828195509550505050509250929050565b610781838383604051806020016040528060008152506109d5565b505050565b6000600a600081548092919061079b90612975565b9190505590506107ab338261125b565b6107b58184611279565b80823373ffffffffffffffffffffffffffffffffffffffff167ff26d7016099493592afbafdbb363cdf1e67c96f9c2e885f50ad6d61106e2c7ce866040516107fd919061223b565b60405180910390a492915050565b600a5481565b600061081c82610f58565b9050919050565b60008073ffffffffffffffffffffffffffffffffffffffff168273ffffffffffffffffffffffffffffffffffffffff16036108965760006040517f89c62b6400000000000000000000000000000000000000000000000000000000815260040161088d91906122cf565b60405180910390fd5b600360008373ffffffffffffffffffffffffffffffffffffffff1673ffffffffffffffffffffffffffffffffffffffff168152602001908152602001600020549050919050565b6108e5610d2f565b6108ef60006112d5565b565b6000600960009054906101000a900473ffffffffffffffffffffffffffffffffffffffff16905090565b60606001805461092a9061283c565b80601f01602080910402602001604051908101604052809291908181526020018280546109569061283c565b80156109a35780601f10610978576101008083540402835291602001916109a3565b820191906000526020600020905b81548152906001019060200180831161098657829003601f168201915b5050505050905090565b6109bf6109b861101d565b838361139b565b5050565b6109cb610d2f565b6109d361150a565b565b6109e0848484610534565b6109f46109eb61101d565b85858585611557565b50505050565b6060610a0582610f58565b506000600660008481526020019081526020016000208054610a269061283c565b80601f0160208091040260200160405190810160405280929190818152602001828054610a529061283c565b8015610a9f5780601f10610a7457610100808354040283529160200191610a9f565b820191906000526020600020905b815481529060010190602001808311610a8257829003601f168201915b505050505090506000610ab0611708565b90506000815103610ac5578192505050610b08565b600082511115610afa578082604051602001610ae29291906129f9565b60405160208183030381529060405292505050610b08565b610b038461171f565b925050505b919050565b6000610b17610d2f565b600a6000815480929190610b2a90612975565b919050559050610b3a848261125b565b610b448184611279565b80828573ffffffffffffffffffffffffffffffffffffffff167ff26d7016099493592afbafdbb363cdf1e67c96f9c2e885f50ad6d61106e2c7ce86604051610b8c919061223b565b60405180910390a49392505050565b6000600560008473ffffffffffffffffffffffffffffffffffffffff1673ffffffffffffffffffffffffffffffffffffffff16815260200190815260200160002060008373ffffffffffffffffffffffffffffffffffffffff1673ffffffffffffffffffffffffffffffffffffffff16815260200190815260200160002060009054906101000a900460ff16905092915050565b610c37610d2f565b600073ffffffffffffffffffffffffffffffffffffffff168173ffffffffffffffffffffffffffffffffffffffff1603610ca95760006040517f1e4fbdf7000000000000000000000000000000000000000000000000000000008152600401610ca091906122cf565b60405180910390fd5b610cb2816112d5565b50565b60007f2a55205a000000000000000000000000000000000000000000000000000000007bffffffffffffffffffffffffffffffffffffffffffffffffffffffff1916827bffffffffffffffffffffffffffffffffffffffffffffffffffffffff19161480610d285750610d2782611788565b5b9050919050565b610d3761101d565b73ffffffffffffffffffffffffffffffffffffffff16610d556108f1565b73ffffffffffffffffffffffffffffffffffffffff1614610db457610d7861101d565b6040517f118cdaa7000000000000000000000000000000000000000000000000000000008152600401610dab91906122cf565b60405180910390fd5b565b6000610dc0611251565b6bffffffffffffffffffffffff16905080826bffffffffffffffffffffffff161115610e255781816040517f6f483d09000000000000000000000000000000000000000000000000000000008152600401610e1c929190612a58565b60405180910390fd5b600073ffffffffffffffffffffffffffffffffffffffff168373ffffffffffffffffffffffffffffffffffffffff1603610e975760006040517fb6d9900a000000000000000000000000000000000000000000000000000000008152600401610e8e91906122cf565b60405180910390fd5b60405180604001604052808473ffffffffffffffffffffffffffffffffffffffff168152602001836bffffffffffffffffffffffff16815250600760008201518160000160006101000a81548173ffffffffffffffffffffffffffffffffffffffff021916908373ffffffffffffffffffffffffffffffffffffffff16021790555060208201518160000160146101000a8154816bffffffffffffffffffffffff02191690836bffffffffffffffffffffffff160217905550905050505050565b600080610f64836117e9565b9050600073ffffffffffffffffffffffffffffffffffffffff168173ffffffffffffffffffffffffffffffffffffffff1603610fd757826040517f7e273289000000000000000000000000000000000000000000000000000000008152600401610fce9190612586565b60405180910390fd5b80915050919050565b60006004600083815260200190815260200160002060009054906101000a900473ffffffffffffffffffffffffffffffffffffffff169050919050565b600033905090565b6110328383836001611826565b505050565b600080611043846117e9565b9050600073ffffffffffffffffffffffffffffffffffffffff168373ffffffffffffffffffffffffffffffffffffffff1614611085576110848184866119eb565b5b600073ffffffffffffffffffffffffffffffffffffffff168173ffffffffffffffffffffffffffffffffffffffff1614611116576110c7600085600080611826565b6001600360008373ffffffffffffffffffffffffffffffffffffffff1673ffffffffffffffffffffffffffffffffffffffff168152602001908152602001600020600082825403925050819055505b600073ffffffffffffffffffffffffffffffffffffffff168573ffffffffffffffffffffffffffffffffffffffff1614611199576001600360008773ffffffffffffffffffffffffffffffffffffffff1673ffffffffffffffffffffffffffffffffffffffff168152602001908152602001600020600082825401925050819055505b846002600086815260200190815260200160002060006101000a81548173ffffffffffffffffffffffffffffffffffffffff021916908373ffffffffffffffffffffffffffffffffffffffff160217905550838573ffffffffffffffffffffffffffffffffffffffff168273ffffffffffffffffffffffffffffffffffffffff167fddf252ad1be2c89b69c2b068fc378daa952ba7f163c4a11628f55a4df523b3ef60405160405180910390a4809150509392505050565b6000612710905090565b611275828260405180602001604052806000815250611aaf565b5050565b806006600084815260200190815260200160002090816112999190612c23565b507ff8e1a15aba9398e019f0b49df1a4fde98ee17ae345cb5f6b5e2c27f5033e8ce7826040516112c99190612586565b60405180910390a15050565b6000600960009054906101000a900473ffffffffffffffffffffffffffffffffffffffff16905081600960006101000a81548173ffffffffffffffffffffffffffffffffffffffff021916908373ffffffffffffffffffffffffffffffffffffffff1602179055508173ffffffffffffffffffffffffffffffffffffffff168173ffffffffffffffffffffffffffffffffffffffff167f8be0079c531659141344cd1fd0a4f28419497f9722a3daafe3b4186f6b6457e060405160405180910390a35050565b600073ffffffffffffffffffffffffffffffffffffffff168273ffffffffffffffffffffffffffffffffffffffff160361140c57816040517f5b08ba1800000000000000000000000000000000000000000000000000000000815260040161140391906122cf565b60405180910390fd5b80600560008573ffffffffffffffffffffffffffffffffffffffff1673ffffffffffffffffffffffffffffffffffffffff16815260200190815260200160002060008473ffffffffffffffffffffffffffffffffffffffff1673ffffffffffffffffffffffffffffffffffffffff16815260200190815260200160002060006101000a81548160ff0219169083151502179055508173ffffffffffffffffffffffffffffffffffffffff168373ffffffffffffffffffffffffffffffffffffffff167f17307eab39ab6107e8899845ad3d59bd9653f200f220920489ca2b5937696c31836040516114fd91906120ae565b60405180910390a3505050565b6007600080820160006101000a81549073ffffffffffffffffffffffffffffffffffffffff02191690556000820160146101000a8154906bffffffffffffffffffffffff02191690555050565b60008373ffffffffffffffffffffffffffffffffffffffff163b1115611701578273ffffffffffffffffffffffffffffffffffffffff1663150b7a02868685856040518563ffffffff1660e01b81526004016115b69493929190612d4a565b6020604051808303816000875af19250505080156115f257506040513d601f19601f820116820180604052508101906115ef9190612dab565b60015b611676573d8060008114611622576040519150601f19603f3d011682016040523d82523d6000602084013e611627565b606091505b50600081510361166e57836040517f64a0ae9200000000000000000000000000000000000000000000000000000000815260040161166591906122cf565b60405180910390fd5b805160208201fd5b63150b7a0260e01b7bffffffffffffffffffffffffffffffffffffffffffffffffffffffff1916817bffffffffffffffffffffffffffffffffffffffffffffffffffffffff1916146116ff57836040517f64a0ae920000000000000000000000000000000000000000000000000000000081526004016116f691906122cf565b60405180910390fd5b505b5050505050565b606060405180602001604052806000815250905090565b606061172a82610f58565b506000611735611708565b905060008151116117555760405180602001604052806000815250611780565b8061175f84611ad3565b6040516020016117709291906129f9565b6040516020818303038152906040525b915050919050565b6000634906490660e01b7bffffffffffffffffffffffffffffffffffffffffffffffffffffffff1916827bffffffffffffffffffffffffffffffffffffffffffffffffffffffff191614806117e257506117e182611ba1565b5b9050919050565b60006002600083815260200190815260200160002060009054906101000a900473ffffffffffffffffffffffffffffffffffffffff169050919050565b808061185f5750600073ffffffffffffffffffffffffffffffffffffffff168273ffffffffffffffffffffffffffffffffffffffff1614155b1561199357600061186f84610f58565b9050600073ffffffffffffffffffffffffffffffffffffffff168373ffffffffffffffffffffffffffffffffffffffff16141580156118da57508273ffffffffffffffffffffffffffffffffffffffff168173ffffffffffffffffffffffffffffffffffffffff1614155b80156118ed57506118eb8184610b9b565b155b1561192f57826040517fa9fbf51f00000000000000000000000000000000000000000000000000000000815260040161192691906122cf565b60405180910390fd5b811561199157838573ffffffffffffffffffffffffffffffffffffffff168273ffffffffffffffffffffffffffffffffffffffff167f8c5be1e5ebec7d5bd14f71427d1e84f3dd0314c0f7b2291e5b200ac8c7c3b92560405160405180910390a45b505b836004600085815260200190815260200160002060006101000a81548173ffffffffffffffffffffffffffffffffffffffff021916908373ffffffffffffffffffffffffffffffffffffffff16021790555050505050565b6119f6838383611c83565b611aaa57600073ffffffffffffffffffffffffffffffffffffffff168373ffffffffffffffffffffffffffffffffffffffff1603611a6b57806040517f7e273289000000000000000000000000000000000000000000000000000000008152600401611a629190612586565b60405180910390fd5b81816040517f177e802f000000000000000000000000000000000000000000000000000000008152600401611aa19291906123cc565b60405180910390fd5b505050565b611ab98383611d44565b611ace611ac461101d565b6000858585611557565b505050565b606060006001611ae284611e3d565b01905060008167ffffffffffffffff811115611b0157611b006123ff565b5b6040519080825280601f01601f191660200182016040528015611b335781602001600182028036833780820191505090505b509050600082602083010190505b600115611b96578080600190039150507f3031323334353637383961626364656600000000000000000000000000000000600a86061a8153600a8581611b8a57611b89612915565b5b04945060008503611b41575b819350505050919050565b60007f80ac58cd000000000000000000000000000000000000000000000000000000007bffffffffffffffffffffffffffffffffffffffffffffffffffffffff1916827bffffffffffffffffffffffffffffffffffffffffffffffffffffffff19161480611c6c57507f5b5e139f000000000000000000000000000000000000000000000000000000007bffffffffffffffffffffffffffffffffffffffffffffffffffffffff1916827bffffffffffffffffffffffffffffffffffffffffffffffffffffffff1916145b80611c7c5750611c7b82611f90565b5b9050919050565b60008073ffffffffffffffffffffffffffffffffffffffff168373ffffffffffffffffffffffffffffffffffffffff1614158015611d3b57508273ffffffffffffffffffffffffffffffffffffffff168473ffffffffffffffffffffffffffffffffffffffff161480611cfc5750611cfb8484610b9b565b5b80611d3a57508273ffffffffffffffffffffffffffffffffffffffff16611d2283610fe0565b73ffffffffffffffffffffffffffffffffffffffff16145b5b90509392505050565b600073ffffffffffffffffffffffffffffffffffffffff168273ffffffffffffffffffffffffffffffffffffffff1603611db65760006040517f64a0ae92000000000000000000000000000000000000000000000000000000008152600401611dad91906122cf565b60405180910390fd5b6000611dc483836000611037565b9050600073ffffffffffffffffffffffffffffffffffffffff168173ffffffffffffffffffffffffffffffffffffffff1614611e385760006040517f73c6ac6e000000000000000000000000000000000000000000000000000000008152600401611e2f91906122cf565b60405180910390fd5b505050565b600080600090507a184f03e93ff9f4daa797ed6e38ed64bf6a1f0100000000000000008310611e9b577a184f03e93ff9f4daa797ed6e38ed64bf6a1f0100000000000000008381611e9157611e90612915565b5b0492506040810190505b6d04ee2d6d415b85acef81000000008310611ed8576d04ee2d6d415b85acef81000000008381611ece57611ecd612915565b5b0492506020810190505b662386f26fc100008310611f0757662386f26fc100008381611efd57611efc612915565b5b0492506010810190505b6305f5e1008310611f30576305f5e1008381611f2657611f25612915565b5b0492506008810190505b6127108310611f55576127108381611f4b57611f4a612915565b5b0492506004810190505b60648310611f785760648381611f6e57611f6d612915565b5b0492506002810190505b600a8310611f87576001810190505b80915050919050565b60007f01ffc9a7000000000000000000000000000000000000000000000000000000007bffffffffffffffffffffffffffffffffffffffffffffffffffffffff1916827bffffffffffffffffffffffffffffffffffffffffffffffffffffffff1916149050919050565b6000604051905090565b600080fd5b600080fd5b60007fffffffff0000000000000000000000000000000000000000000000000000000082169050919050565b6120438161200e565b811461204e57600080fd5b50565b6000813590506120608161203a565b92915050565b60006020828403121561207c5761207b612004565b5b600061208a84828501612051565b91505092915050565b60008115159050919050565b6120a881612093565b82525050565b60006020820190506120c3600083018461209f565b92915050565b600073ffffffffffffffffffffffffffffffffffffffff82169050919050565b60006120f4826120c9565b9050919050565b612104816120e9565b811461210f57600080fd5b50565b600081359050612121816120fb565b92915050565b60006bffffffffffffffffffffffff82169050919050565b61214881612127565b811461215357600080fd5b50565b6000813590506121658161213f565b92915050565b6000806040838503121561218257612181612004565b5b600061219085828601612112565b92505060206121a185828601612156565b9150509250929050565b600081519050919050565b600082825260208201905092915050565b60005b838110156121e55780820151818401526020810190506121ca565b60008484015250505050565b6000601f19601f8301169050919050565b600061220d826121ab565b61221781856121b6565b93506122278185602086016121c7565b612230816121f1565b840191505092915050565b600060208201905081810360008301526122558184612202565b905092915050565b6000819050919050565b6122708161225d565b811461227b57600080fd5b50565b60008135905061228d81612267565b92915050565b6000602082840312156122a9576122a8612004565b5b60006122b78482850161227e565b91505092915050565b6122c9816120e9565b82525050565b60006020820190506122e460008301846122c0565b92915050565b6000806040838503121561230157612300612004565b5b600061230f85828601612112565b92505060206123208582860161227e565b9150509250929050565b60008060006060848603121561234357612342612004565b5b600061235186828701612112565b935050602061236286828701612112565b92505060406123738682870161227e565b9150509250925092565b6000806040838503121561239457612393612004565b5b60006123a28582860161227e565b92505060206123b38582860161227e565b9150509250929050565b6123c68161225d565b82525050565b60006040820190506123e160008301856122c0565b6123ee60208301846123bd565b9392505050565b600080fd5b600080fd5b7f4e487b7100000000000000000000000000000000000000000000000000000000600052604160045260246000fd5b612437826121f1565b810181811067ffffffffffffffff82111715612456576124556123ff565b5b80604052505050565b6000612469611ffa565b9050612475828261242e565b919050565b600067ffffffffffffffff821115612495576124946123ff565b5b61249e826121f1565b9050602081019050919050565b82818337600083830152505050565b60006124cd6124c88461247a565b61245f565b9050828152602081018484840111156124e9576124e86123fa565b5b6124f48482856124ab565b509392505050565b600082601f830112612511576125106123f5565b5b81356125218482602086016124ba565b91505092915050565b6000806040838503121561254157612540612004565b5b600083013567ffffffffffffffff81111561255f5761255e612009565b5b61256b858286016124fc565b925050602061257c8582860161227e565b9150509250929050565b600060208201905061259b60008301846123bd565b92915050565b6000602082840312156125b7576125b6612004565b5b60006125c584828501612112565b91505092915050565b6125d781612093565b81146125e257600080fd5b50565b6000813590506125f4816125ce565b92915050565b6000806040838503121561261157612610612004565b5b600061261f85828601612112565b9250506020612630858286016125e5565b9150509250929050565b600067ffffffffffffffff821115612655576126546123ff565b5b61265e826121f1565b9050602081019050919050565b600061267e6126798461263a565b61245f565b90508281526020810184848401111561269a576126996123fa565b5b6126a58482856124ab565b509392505050565b600082601f8301126126c2576126c16123f5565b5b81356126d284826020860161266b565b91505092915050565b600080600080608085870312156126f5576126f4612004565b5b600061270387828801612112565b945050602061271487828801612112565b93505060406127258782880161227e565b925050606085013567ffffffffffffffff81111561274657612745612009565b5b612752878288016126ad565b91505092959194509250565b60008060006060848603121561277757612776612004565b5b600061278586828701612112565b935050602084013567ffffffffffffffff8111156127a6576127a5612009565b5b6127b2868287016124fc565b92505060406127c38682870161227e565b9150509250925092565b600080604083850312156127e4576127e3612004565b5b60006127f285828601612112565b925050602061280385828601612112565b9150509250929050565b7f4e487b7100000000000000000000000000000000000000000000000000000000600052602260045260246000fd5b6000600282049050600182168061285457607f821691505b6020821081036128675761286661280d565b5b50919050565b600060608201905061288260008301866122c0565b61288f60208301856123bd565b61289c60408301846122c0565b949350505050565b7f4e487b7100000000000000000000000000000000000000000000000000000000600052601160045260246000fd5b60006128de8261225d565b91506128e98361225d565b92508282026128f78161225d565b9150828204841483151761290e5761290d6128a4565b5b5092915050565b7f4e487b7100000000000000000000000000000000000000000000000000000000600052601260045260246000fd5b600061294f8261225d565b915061295a8361225d565b92508261296a57612969612915565b5b828204905092915050565b60006129808261225d565b91507fffffffffffffffffffffffffffffffffffffffffffffffffffffffffffffffff82036129b2576129b16128a4565b5b600182019050919050565b600081905092915050565b60006129d3826121ab565b6129dd81856129bd565b93506129ed8185602086016121c7565b80840191505092915050565b6000612a0582856129c8565b9150612a1182846129c8565b91508190509392505050565b6000819050919050565b6000612a42612a3d612a3884612127565b612a1d565b61225d565b9050919050565b612a5281612a27565b82525050565b6000604082019050612a6d6000830185612a49565b612a7a60208301846123bd565b9392505050565b60008190508160005260206000209050919050565b60006020601f8301049050919050565b600082821b905092915050565b600060088302612ae37fffffffffffffffffffffffffffffffffffffffffffffffffffffffffffffffff82612aa6565b612aed8683612aa6565b95508019841693508086168417925050509392505050565b6000612b20612b1b612b168461225d565b612a1d565b61225d565b9050919050565b6000819050919050565b612b3a83612b05565b612b4e612b4682612b27565b848454612ab3565b825550505050565b600090565b612b63612b56565b612b6e818484612b31565b505050565b5b81811015612b9257612b87600082612b5b565b600181019050612b74565b5050565b601f821115612bd757612ba881612a81565b612bb184612a96565b81016020851015612bc0578190505b612bd4612bcc85612a96565b830182612b73565b50505b505050565b600082821c905092915050565b6000612bfa60001984600802612bdc565b1980831691505092915050565b6000612c138383612be9565b9150826002028217905092915050565b612c2c826121ab565b67ffffffffffffffff811115612c4557612c446123ff565b5b612c4f825461283c565b612c5a828285612b96565b600060209050601f831160018114612c8d5760008415612c7b578287015190505b612c858582612c07565b865550612ced565b601f198416612c9b86612a81565b60005b82811015612cc357848901518255600182019150602085019450602081019050612c9e565b86831015612ce05784890151612cdc601f891682612be9565b8355505b6001600288020188555050505b505050505050565b600081519050919050565b600082825260208201905092915050565b6000612d1c82612cf5565b612d268185612d00565b9350612d368185602086016121c7565b612d3f816121f1565b840191505092915050565b6000608082019050612d5f60008301876122c0565b612d6c60208301866122c0565b612d7960408301856123bd565b8181036060830152612d8b8184612d11565b905095945050505050565b600081519050612da58161203a565b92915050565b600060208284031215612dc157612dc0612004565b5b6000612dcf84828501612d96565b9150509291505056fea2646970667358221220702e966680571c66c4a9ba08b03bd759341318c45dab539637edd309580804e864736f6c63430008180033",
  "linkReferences": {},
  "deployedLinkReferences": {}
}